:1000000060C0000079C0000077C0000075C000002B
:1000100073C0000071C000006FC000006DC0000020
:100020006BC0000069C0000067C0000065C0000030
:1000300063C0000061C000005FC000005DC0000040
:1000400036C1000059C0000057C0000055C0000074
:1000500053C0000051C000004FC000004DC0000060
:100060004BC0000049C00000000000080002010071
:100070000003040700000000000000000102040863
:100080001020408001020408102001020408102002
:10009000040404040404040402020202020203032E
:1000A00003030303000000002300260029000000D2
:1000B0000000250028002B0000000000240027007D
:1000C0002A0011241FBECFEFD4E0DEBFCDBF11E068
:1000D000A0E0B1E0E6E8F6E002C005900D92A030A5
:1000E000B107D9F721E0A0E0B1E001C01D92AD3029
:1000F000B207E1F7D1D0C5C283CF61E083E02AD255
:1001000061E085E027D261E086E024D261E089E009
:1001100021D260E08FE01ED260E081E11BC2CF936C
:10012000DF93EC01BC0183E08FD160E085E04BD22E
:10013000BE0186E089D160E089E0DF91CF9143C2C2
:10014000CF93DF93EC01BC0185E07ED160E083E0DA
:100150003AD2BE0189E078D160E086E0DF91CF91AC
:1001600032C2CF93DF93EC01BC0185E06DD160E03A
:1001700083E029D2BE0186E067D160E089E0DF91AB
:10018000CF9121C2CF93DF93EC01BC0183E05CD11E
:1001900060E085E018D2BE0189E056D160E086E0DB
:1001A000DF91CF9110C286E990E0B9DF8091020122
:1001B000909103010697A4F010920301109202019E
:1001C00086E990E0BDDF60ED77E080E090E0DCD094
:1001D00088EC90E0D7DF60E273E080E090E0D4D07C
:1001E0008FE026D2892B41F5809100019091010189
:1001F000019751F48091020190910301019690932F
:1002000003018093020104C01092030110920201C5
:10021000109201011092000186E990E091DF64EFF5
:1002200071E080E090E0B0D088EC90E0ABDF60E976
:1002300071E080E090E0A8D081E1FAD1892B51F5FE
:100240008091000190910101892B51F4809102016C
:10025000909103010196909303018093020104C0E1
:10026000109203011092020181E090E0909301014D
:100270008093000186E990E063DF60E971E080E04F
:1002800090E082D088EC90E06CDF60E971E080E083
:1002900090E07AC0089508959CD0FDDF2EDFC0E085
:1002A000D0E081DF2097E9F30E940000FACF1F928F
:1002B0000F920FB60F9211242F933F938F939F931A
:1002C000AF93BF938091050190910601A091070122
:1002D000B09108013091040123E0230F2D3720F461
:1002E0000196A11DB11D05C026E8230F0296A11D90
:1002F000B11D209304018093050190930601A09302
:100300000701B09308018091090190910A01A09121
:100310000B01B0910C010196A11DB11D8093090143
:1003200090930A01A0930B01B0930C01BF91AF9180
:100330009F918F913F912F910F900FBE0F901F9023
:1003400018953FB7F8948091090190910A01A09106
:100350000B01B0910C0126B5A89B05C02F3F19F0E9
:100360000196A11DB11D3FBF6627782F892F9A2FB7
:10037000620F711D811D911D42E0660F771F881F5E
:10038000991F4A95D1F70895CF92DF92EF92FF928D
:10039000CF93DF936B017C01D4DFEB01C114D10457
:1003A000E104F10479F06CD1CCDF6C1B7D0B683E6D
:1003B0007340A0F381E0C81AD108E108F108C851E0
:1003C000DC4FECCFDF91CF91FF90EF90DF90CF909B
:1003D0000895789484B5826084BD84B5816084BDBD
:1003E00085B5826085BD85B5816085BDEEE6F0E0AE
:1003F000808181608083E1E8F0E01082808182600A
:100400008083808181608083E0E8F0E0808181608A
:100410008083E1EBF0E0808184608083E0EBF0E0BA
:10042000808181608083EAE7F0E08081846080835E
:100430008081826080838081816080838081806808
:1004400080831092C10008951F93CF93DF93182FDC
:10045000EB0161E07FD0209711F460E004C0CF3F52
:10046000D10531F461E0812FDF91CF911F91ABC0B5
:10047000E12FF0E0E859FF4FE491E330F9F048F460
:10048000E130B9F0E230A1F584B5806284BDC8BD29
:1004900034C0E730E9F0E83019F1E43049F58091F3
:1004A0008000806280938000D0938B00C0938A008C
:1004B00024C084B5806884BDC7BD1FC08091800002
:1004C000806880938000D0938900C093880015C015
:1004D0008091B00080688093B000C093B3000DC0DD
:1004E0008091B00080628093B000C093B40005C0DA
:1004F000C038D1050CF0B6CFB0CFDF91CF911F91AE
:100500000895833081F028F4813099F08230A1F091
:1005100008958730A9F08830B9F08430D1F4809103
:1005200080008F7D03C0809180008F778093800052
:10053000089584B58F7702C084B58F7D84BD0895FA
:100540008091B0008F7703C08091B0008F7D809341
:10055000B0000895CF93DF9390E0FC01E458FF4F83
:100560002491FC01E057FF4F8491882349F190E0EA
:10057000880F991FFC01E854FF4FA591B491825553
:100580009F4FFC01C591D4919FB7611108C0F894A9
:100590008C91209582238C93888182230AC06230BB
:1005A00051F4F8948C91322F309583238C93888169
:1005B000822B888304C0F8948C91822B8C939FBFEC
:1005C000DF91CF9108950F931F93CF93DF931F92E5
:1005D000CDB7DEB7282F30E0F901E859FF4F8491FD
:1005E000F901E458FF4F1491F901E057FF4F0491CE
:1005F0000023C1F0882319F0698383DF6981E02F2C
:10060000F0E0EE0FFF1FE255FF4FA591B4919FB7A9
:10061000F8948C91611103C01095812301C0812B46
:100620008C939FBF0F90DF91CF911F910F910895F1
:10063000CF93DF93282F30E0F901E859FF4F8491E1
:10064000F901E458FF4FD491F901E057FF4FC491ED
:10065000CC2389F0811155DFEC2FF0E0EE0FFF1F66
:10066000EC55FF4FA591B4912C912D2381E090E0A2
:1006700021F480E002C080E090E0DF91CF91089506
:060680000895F894FFCF7D
:00000001FF
